:1000000010C0189518951895189518951895189565
:100010001895189518951895189518951895189578
:1000200018958FE58DBFC8E3E0E24E2E82E08EBFCB
:10003000D2E0F2E05F2EEEEFF1E0A0E6B0E088273C
:100040008D933197E9F766248FEF8ABBD098D198CA
:100050008FEF87BB8FEF84BB8FEF81BB8FE08093E7
:100060006300DA9ADB9A71E278BBDA9813D072E215
:1000700078BBE3E0F0E0ABD0DA9A7CE078BBDB98C9
:1000800009D074E178BBE3E0F0E0A1D0DB9AEBCFDC
:10009000F894FFCF8091630080936000C89B01C0FB
:1000A00042D0C99B01C05BD010D0E1E0F0E08FD01E
:1000B00000916000003009F001C006C0809160002E
:1000C000815080936000EACF0895009160004AE07B
:1000D000BBD0A1E6B0E00C93009161004AE0A8D04B
:1000E000A2E6B0E04C930091600040916200041BD6
:1000F000A2E6B0E00C93ECE1F1E0A1E6B0E08C9177
:100100009927A2E3B0E091D0ECE1F1E0A2E6B0E003
:100110008C919927A5E3B0E088D008953F065B4F06
:10012000666D7D077F6FDA98DB98A3E6B0E08C916F
:100130008F5F8C9300916300043609F003C085E063
:10014000809363008091630080936000BEDFC89954
:1001500001C05DCF84EF91E049D0E7CF0895DA98F0
:10016000DB9880916300815080936300009163006D
:10017000043009F003C083E680936300809163003C
:1001800080936000A2DFC99901C005C084EF91E0AF
:100190002DD0E7CF089580E0809364000091640043
:1001A000023010F009F012C090DF84EF91E01ED011
:1001B00070E072BB70E075BB84EF91E017D0A4E6ED
:1001C000B0E08C918F5F8C9308F4E8CF4ACF88EE33
:1001D00093E00CD03197D9F708953197F1F708954E
:1001E000689462F80895E89462F80895EF93FF9395
:1001F000EE27E82BE92B31F0EAEFF0E03197F1F749
:100200000197D1F7FF91EF910895C895319600209D
:10021000089591E005C092E003C094E001C098E029
:10022000F4DF0D929A95E1F70895E80FF91FF1CFE9
:10023000FF935527F8E0469508F4500F57954795DA
:10024000FA95D1F7FF910895FF93881BF9E0001FFD
:10025000FA9511F4FF910895881F841B18F4840FF8
:080260008894F5CF0894F3CF58
:00000001FF
